{
  "contractName": "MultiSigWallet",
  "abi": [
    {
      "inputs": [
        {
          "internalType": "address",
          "name": "_registryContract",
          "type": "address"
        }
      ],
      "stateMutability": "nonpayable",
      "type": "constructor"
    },
    {
      "anonymous": false,
      "inputs": [
        {
          "indexed": true,
          "internalType": "address",
          "name": "owner",
          "type": "address"
        },
        {
          "indexed": true,
          "internalType": "uint256",
          "name": "txIndex",
          "type": "uint256"
        }
      ],
      "name": "ConfirmTransaction",
      "type": "event"
    },
    {
      "anonymous": false,
      "inputs": [
        {
          "indexed": true,
          "internalType": "address",
          "name": "sender",
          "type": "address"
        },
        {
          "indexed": false,
          "internalType": "uint256",
          "name": "amount",
          "type": "uint256"
        },
        {
          "indexed": false,
          "internalType": "uint256",
          "name": "balance",
          "type": "uint256"
        }
      ],
      "name": "Deposit",
      "type": "event"
    },
    {
      "anonymous": false,
      "inputs": [
        {
          "indexed": true,
          "internalType": "address",
          "name": "owner",
          "type": "address"
        },
        {
          "indexed": true,
          "internalType": "uint256",
          "name": "txIndex",
          "type": "uint256"
        }
      ],
      "name": "ExecuteTransaction",
      "type": "event"
    },
    {
      "anonymous": false,
      "inputs": [
        {
          "indexed": true,
          "internalType": "address",
          "name": "owner",
          "type": "address"
        },
        {
          "indexed": true,
          "internalType": "bool",
          "name": "status",
          "type": "bool"
        }
      ],
      "name": "OwnerStatus",
      "type": "event"
    },
    {
      "anonymous": false,
      "inputs": [
        {
          "indexed": true,
          "internalType": "address",
          "name": "owner",
          "type": "address"
        },
        {
          "indexed": true,
          "internalType": "uint256",
          "name": "txIndex",
          "type": "uint256"
        }
      ],
      "name": "RevokeConfirmation",
      "type": "event"
    },
    {
      "anonymous": false,
      "inputs": [
        {
          "indexed": true,
          "internalType": "address",
          "name": "owner",
          "type": "address"
        },
        {
          "indexed": true,
          "internalType": "uint256",
          "name": "txIndex",
          "type": "uint256"
        },
        {
          "indexed": true,
          "internalType": "address",
          "name": "to",
          "type": "address"
        },
        {
          "indexed": false,
          "internalType": "uint256",
          "name": "value",
          "type": "uint256"
        },
        {
          "indexed": false,
          "internalType": "bytes",
          "name": "data",
          "type": "bytes"
        }
      ],
      "name": "SubmitTransaction",
      "type": "event"
    },
    {
      "inputs": [
        {
          "internalType": "uint256",
          "name": "",
          "type": "uint256"
        },
        {
          "internalType": "address",
          "name": "",
          "type": "address"
        }
      ],
      "name": "isConfirmed",
      "outputs": [
        {
          "internalType": "bool",
          "name": "",
          "type": "bool"
        }
      ],
      "stateMutability": "view",
      "type": "function"
    },
    {
      "inputs": [
        {
          "internalType": "address",
          "name": "",
          "type": "address"
        }
      ],
      "name": "isOwner",
      "outputs": [
        {
          "internalType": "bool",
          "name": "",
          "type": "bool"
        }
      ],
      "stateMutability": "view",
      "type": "function"
    },
    {
      "inputs": [],
      "name": "numConfirmationsRequired",
      "outputs": [
        {
          "internalType": "uint256",
          "name": "",
          "type": "uint256"
        }
      ],
      "stateMutability": "view",
      "type": "function"
    },
    {
      "inputs": [
        {
          "internalType": "uint256",
          "name": "",
          "type": "uint256"
        }
      ],
      "name": "transactions",
      "outputs": [
        {
          "internalType": "address",
          "name": "to",
          "type": "address"
        },
        {
          "internalType": "uint256",
          "name": "value",
          "type": "uint256"
        },
        {
          "internalType": "bytes",
          "name": "data",
          "type": "bytes"
        },
        {
          "internalType": "bool",
          "name": "executed",
          "type": "bool"
        },
        {
          "internalType": "uint256",
          "name": "numConfirmations",
          "type": "uint256"
        }
      ],
      "stateMutability": "view",
      "type": "function"
    },
    {
      "stateMutability": "payable",
      "type": "receive"
    },
    {
      "inputs": [
        {
          "internalType": "address[]",
          "name": "_owners",
          "type": "address[]"
        },
        {
          "internalType": "bool[]",
          "name": "_status",
          "type": "bool[]"
        },
        {
          "internalType": "uint256",
          "name": "_numConfirmationsRequired",
          "type": "uint256"
        }
      ],
      "name": "getOwners",
      "outputs": [],
      "stateMutability": "nonpayable",
      "type": "function"
    },
    {
      "inputs": [
        {
          "internalType": "address",
          "name": "_to",
          "type": "address"
        },
        {
          "internalType": "uint256",
          "name": "_value",
          "type": "uint256"
        },
        {
          "internalType": "bytes",
          "name": "_data",
          "type": "bytes"
        }
      ],
      "name": "submitTransaction",
      "outputs": [],
      "stateMutability": "nonpayable",
      "type": "function"
    },
    {
      "inputs": [
        {
          "internalType": "uint256",
          "name": "_txIndex",
          "type": "uint256"
        }
      ],
      "name": "confirmTransaction",
      "outputs": [],
      "stateMutability": "nonpayable",
      "type": "function"
    },
    {
      "inputs": [
        {
          "internalType": "uint256",
          "name": "_txIndex",
          "type": "uint256"
        }
      ],
      "name": "executeTransaction",
      "outputs": [],
      "stateMutability": "nonpayable",
      "type": "function"
    },
    {
      "inputs": [
        {
          "internalType": "uint256",
          "name": "_txIndex",
          "type": "uint256"
        }
      ],
      "name": "revokeConfirmation",
      "outputs": [],
      "stateMutability": "nonpayable",
      "type": "function"
    },
    {
      "inputs": [],
      "name": "getTransactionCount",
      "outputs": [
        {
          "internalType": "uint256",
          "name": "",
          "type": "uint256"
        }
      ],
      "stateMutability": "view",
      "type": "function"
    },
    {
      "inputs": [
        {
          "internalType": "uint256",
          "name": "_txIndex",
          "type": "uint256"
        }
      ],
      "name": "getTransaction",
      "outputs": [
        {
          "internalType": "address",
          "name": "to",
          "type": "address"
        },
        {
          "internalType": "uint256",
          "name": "value",
          "type": "uint256"
        },
        {
          "internalType": "bytes",
          "name": "data",
          "type": "bytes"
        },
        {
          "internalType": "bool",
          "name": "executed",
          "type": "bool"
        },
        {
          "internalType": "uint256",
          "name": "numConfirmations",
          "type": "uint256"
        }
      ],
      "stateMutability": "view",
      "type": "function"
    }
  ],
  "bytecode": "0x60a06040523480156200001157600080fd5b506040516200231f3803806200231f8339818101604052810190620000379190620000dc565b8073ffffffffffffffffffffffffffffffffffffffff1660808173ffffffffffffffffffffffffffffffffffffffff1681525050506200010e565b600080fd5b600073ffffffffffffffffffffffffffffffffffffffff82169050919050565b6000620000a48262000077565b9050919050565b620000b68162000097565b8114620000c257600080fd5b50565b600081519050620000d681620000ab565b92915050565b600060208284031215620000f557620000f462000072565b5b60006200010584828501620000c5565b91505092915050565b6080516121f56200012a600039600061073601526121f56000f3fe6080604052600436106100a05760003560e01c806380f59a651161006457806380f59a65146101f75780639ace38c214610234578063c01a8c8414610275578063c64274741461029e578063d0549b85146102c7578063ee22610b146102f2576100f7565b806320ea8d86146100fc5780632e7700f0146101255780632f54bf6e1461015057806333ea3dc81461018d57806360fac332146101ce576100f7565b366100f7573373ffffffffffffffffffffffffffffffffffffffff167f90890809c654f11d6e72a28fa60149770a0d11ec6c92319d6ceb2bb0a4ea1a1534476040516100ed929190611265565b60405180910390a2005b600080fd5b34801561010857600080fd5b50610123600480360381019061011e91906112ce565b61031b565b005b34801561013157600080fd5b5061013a6105f4565b60405161014791906112fb565b60405180910390f35b34801561015c57600080fd5b5061017760048036038101906101729190611374565b610601565b60405161018491906113bc565b60405180910390f35b34801561019957600080fd5b506101b460048036038101906101af91906112ce565b610621565b6040516101c595949392919061147f565b60405180910390f35b3480156101da57600080fd5b506101f560048036038101906101f09190611710565b610734565b005b34801561020357600080fd5b5061021e6004803603810190610219919061179b565b610947565b60405161022b91906113bc565b60405180910390f35b34801561024057600080fd5b5061025b600480360381019061025691906112ce565b610976565b60405161026c95949392919061147f565b60405180910390f35b34801561028157600080fd5b5061029c600480360381019061029791906112ce565b610a71565b005b3480156102aa57600080fd5b506102c560048036038101906102c09190611890565b610d4d565b005b3480156102d357600080fd5b506102dc610f4f565b6040516102e991906112fb565b60405180910390f35b3480156102fe57600080fd5b50610319600480360381019061031491906112ce565b610f55565b005b6000803373ffffffffffffffffffffffffffffffffffffffff1673ffffffffffffffffffffffffffffffffffffffff16815260200190815260200160002060009054906101000a900460ff166103a6576040517f08c379a000000000000000000000000000000000000000000000000000000000815260040161039d9061195c565b60405180910390fd5b8060038054905081106103ee576040517f08c379a00000000000000000000000000000000000000000000000000000000081526004016103e5906119c8565b60405180910390fd5b8160038181548110610403576104026119e8565b5b906000526020600020906005020160030160009054906101000a900460ff1615610462576040517f08c379a000000000000000000000000000000000000000000000000000000000815260040161045990611a63565b60405180910390fd5b600060038481548110610478576104776119e8565b5b906000526020600020906005020190506002600085815260200190815260200160002060003373ffffffffffffffffffffffffffffffffffffffff1673ffffffffffffffffffffffffffffffffffffffff16815260200190815260200160002060009054906101000a900460ff16610525576040517f08c379a000000000000000000000000000000000000000000000000000000000815260040161051c90611acf565b60405180910390fd5b600181600401600082825461053a9190611b1e565b9250508190555060006002600086815260200190815260200160002060003373ffffffffffffffffffffffffffffffffffffffff1673ffffffffffffffffffffffffffffffffffffffff16815260200190815260200160002060006101000a81548160ff021916908315150217905550833373ffffffffffffffffffffffffffffffffffffffff167ff0dca620e2e81f7841d07bcc105e1704fb01475b278a9d4c236e1c62945edd5560405160405180910390a350505050565b6000600380549050905090565b60006020528060005260406000206000915054906101000a900460ff1681565b600080606060008060006003878154811061063f5761063e6119e8565b5b906000526020600020906005020190508060000160009054906101000a900473ffffffffffffffffffffffffffffffffffffffff168160010154826002018360030160009054906101000a900460ff1684600401548280546106a090611b81565b80601f01602080910402602001604051908101604052809291908181526020018280546106cc90611b81565b80156107195780601f106106ee57610100808354040283529160200191610719565b820191906000526020600020905b8154815290600101906020018083116106fc57829003601f168201915b50505050509250955095509550955095505091939590929450565b7f000000000000000000000000000000000000000000000000000000000000000073ffffffffffffffffffffffffffffffffffffffff163373ffffffffffffffffffffffffffffffffffffffff161461078c57600080fd5b60008351116107d0576040517f08c379a00000000000000000000000000000000000000000000000000000000081526004016107c790611bfe565b60405180910390fd5b60005b835181101561093a5760008482815181106107f1576107f06119e8565b5b6020026020010151905060008483815181106108105761080f6119e8565b5b60200260200101519050600073ffffffffffffffffffffffffffffffffffffffff168273ffffffffffffffffffffffffffffffffffffffff1603610889576040517f08c379a000000000000000000000000000000000000000000000000000000000815260040161088090611c6a565b60405180910390fd5b806000808473ffffffffffffffffffffffffffffffffffffffff1673ffffffffffffffffffffffffffffffffffffffff16815260200190815260200160002060006101000a81548160ff0219169083151502179055508015158273ffffffffffffffffffffffffffffffffffffffff167f949a9f7bf15a0cde0be6c1e9835ce77de383e553c5b03921b67fbad3acf83a6460405160405180910390a35050808061093290611c8a565b9150506107d3565b5080600181905550505050565b60026020528160005260406000206020528060005260406000206000915091509054906101000a900460ff1681565b6003818154811061098657600080fd5b90600052602060002090600502016000915090508060000160009054906101000a900473ffffffffffffffffffffffffffffffffffffffff16908060010154908060020180546109d590611b81565b80601f0160208091040260200160405190810160405280929190818152602001828054610a0190611b81565b8015610a4e5780601f10610a2357610100808354040283529160200191610a4e565b820191906000526020600020905b815481529060010190602001808311610a3157829003601f168201915b5050505050908060030160009054906101000a900460ff16908060040154905085565b6000803373ffffffffffffffffffffffffffffffffffffffff1673ffffffffffffffffffffffffffffffffffffffff16815260200190815260200160002060009054906101000a900460ff16610afc576040517f08c379a0000000000000000000000000000000000000000000000000000000008152600401610af39061195c565b60405180910390fd5b806003805490508110610b44576040517f08c379a0000000000000000000000000000000000000000000000000000000008152600401610b3b906119c8565b60405180910390fd5b8160038181548110610b5957610b586119e8565b5b906000526020600020906005020160030160009054906101000a900460ff1615610bb8576040517f08c379a0000000000000000000000000000000000000000000000000000000008152600401610baf90611a63565b60405180910390fd5b826002600082815260200190815260200160002060003373ffffffffffffffffffffffffffffffffffffffff1673ffffffffffffffffffffffffffffffffffffffff16815260200190815260200160002060009054906101000a900460ff1615610c57576040517f08c379a0000000000000000000000000000000000000000000000000000000008152600401610c4e90611d1e565b60405180910390fd5b600060038581548110610c6d57610c6c6119e8565b5b906000526020600020906005020190506001816004016000828254610c929190611d3e565b9250508190555060016002600087815260200190815260200160002060003373ffffffffffffffffffffffffffffffffffffffff1673ffffffffffffffffffffffffffffffffffffffff16815260200190815260200160002060006101000a81548160ff021916908315150217905550843373ffffffffffffffffffffffffffffffffffffffff167f5cbe105e36805f7820e291f799d5794ff948af2a5f664e580382defb6339004160405160405180910390a35050505050565b6000803373ffffffffffffffffffffffffffffffffffffffff1673ffffffffffffffffffffffffffffffffffffffff16815260200190815260200160002060009054906101000a900460ff16610dd8576040517f08c379a0000000000000000000000000000000000000000000000000000000008152600401610dcf9061195c565b60405180910390fd5b6000600380549050905060036040518060a001604052808673ffffffffffffffffffffffffffffffffffffffff1681526020018581526020018481526020016000151581526020016000815250908060018154018082558091505060019003906000526020600020906005020160009091909190915060008201518160000160006101000a81548173ffffffffffffffffffffffffffffffffffffffff021916908373ffffffffffffffffffffffffffffffffffffffff160217905550602082015181600101556040820151816002019081610eb49190611f40565b5060608201518160030160006101000a81548160ff0219169083151502179055506080820151816004015550508373ffffffffffffffffffffffffffffffffffffffff16813373ffffffffffffffffffffffffffffffffffffffff167fd5a05bf70715ad82a09a756320284a1b54c9ff74cd0f8cce6219e79b563fe59d8686604051610f41929190612012565b60405180910390a450505050565b60015481565b6000803373ffffffffffffffffffffffffffffffffffffffff1673ffffffffffffffffffffffffffffffffffffffff16815260200190815260200160002060009054906101000a900460ff16610fe0576040517f08c379a0000000000000000000000000000000000000000000000000000000008152600401610fd79061195c565b60405180910390fd5b806003805490508110611028576040517f08c379a000000000000000000000000000000000000000000000000000000000815260040161101f906119c8565b60405180910390fd5b816003818154811061103d5761103c6119e8565b5b906000526020600020906005020160030160009054906101000a900460ff161561109c576040517f08c379a000000000000000000000000000000000000000000000000000000000815260040161109390611a63565b60405180910390fd5b6000600384815481106110b2576110b16119e8565b5b906000526020600020906005020190506001548160040154101561110b576040517f08c379a00000000000000000000000000000000000000000000000000000000081526004016111029061208e565b60405180910390fd5b60018160030160006101000a81548160ff02191690831515021790555060008160000160009054906101000a900473ffffffffffffffffffffffffffffffffffffffff1673ffffffffffffffffffffffffffffffffffffffff1682600101548360020160405161117b919061213c565b60006040518083038185875af1925050503d80600081146111b8576040519150601f19603f3d011682016040523d82523d6000602084013e6111bd565b606091505b5050905080611201576040517f08c379a00000000000000000000000000000000000000000000000000000000081526004016111f89061219f565b60405180910390fd5b843373ffffffffffffffffffffffffffffffffffffffff167f5445f318f4f5fcfb66592e68e0cc5822aa15664039bd5f0ffde24c5a8142b1ac60405160405180910390a35050505050565b6000819050919050565b61125f8161124c565b82525050565b600060408201905061127a6000830185611256565b6112876020830184611256565b9392505050565b6000604051905090565b600080fd5b600080fd5b6112ab8161124c565b81146112b657600080fd5b50565b6000813590506112c8816112a2565b92915050565b6000602082840312156112e4576112e3611298565b5b60006112f2848285016112b9565b91505092915050565b60006020820190506113106000830184611256565b92915050565b600073ffffffffffffffffffffffffffffffffffffffff82169050919050565b600061134182611316565b9050919050565b61135181611336565b811461135c57600080fd5b50565b60008135905061136e81611348565b92915050565b60006020828403121561138a57611389611298565b5b60006113988482850161135f565b91505092915050565b60008115159050919050565b6113b6816113a1565b82525050565b60006020820190506113d160008301846113ad565b92915050565b6113e081611336565b82525050565b600081519050919050565b600082825260208201905092915050565b60005b83811015611420578082015181840152602081019050611405565b8381111561142f576000848401525b50505050565b6000601f19601f8301169050919050565b6000611451826113e6565b61145b81856113f1565b935061146b818560208601611402565b61147481611435565b840191505092915050565b600060a08201905061149460008301886113d7565b6114a16020830187611256565b81810360408301526114b38186611446565b90506114c260608301856113ad565b6114cf6080830184611256565b9695505050505050565b600080fd5b7f4e487b7100000000000000000000000000000000000000000000000000000000600052604160045260246000fd5b61151682611435565b810181811067ffffffffffffffff82111715611535576115346114de565b5b80604052505050565b600061154861128e565b9050611554828261150d565b919050565b600067ffffffffffffffff821115611574576115736114de565b5b602082029050602081019050919050565b600080fd5b600061159d61159884611559565b61153e565b905080838252602082019050602084028301858111156115c0576115bf611585565b5b835b818110156115e957806115d5888261135f565b8452602084019350506020810190506115c2565b5050509392505050565b600082601f830112611608576116076114d9565b5b813561161884826020860161158a565b91505092915050565b600067ffffffffffffffff82111561163c5761163b6114de565b5b602082029050602081019050919050565b611656816113a1565b811461166157600080fd5b50565b6000813590506116738161164d565b92915050565b600061168c61168784611621565b61153e565b905080838252602082019050602084028301858111156116af576116ae611585565b5b835b818110156116d857806116c48882611664565b8452602084019350506020810190506116b1565b5050509392505050565b600082601f8301126116f7576116f66114d9565b5b8135611707848260208601611679565b91505092915050565b60008060006060848603121561172957611728611298565b5b600084013567ffffffffffffffff8111156117475761174661129d565b5b611753868287016115f3565b935050602084013567ffffffffffffffff8111156117745761177361129d565b5b611780868287016116e2565b9250506040611791868287016112b9565b9150509250925092565b600080604083850312156117b2576117b1611298565b5b60006117c0858286016112b9565b92505060206117d18582860161135f565b9150509250929050565b600080fd5b600067ffffffffffffffff8211156117fb576117fa6114de565b5b61180482611435565b9050602081019050919050565b82818337600083830152505050565b600061183361182e846117e0565b61153e565b90508281526020810184848401111561184f5761184e6117db565b5b61185a848285611811565b509392505050565b600082601f830112611877576118766114d9565b5b8135611887848260208601611820565b91505092915050565b6000806000606084860312156118a9576118a8611298565b5b60006118b78682870161135f565b93505060206118c8868287016112b9565b925050604084013567ffffffffffffffff8111156118e9576118e861129d565b5b6118f586828701611862565b9150509250925092565b600082825260208201905092915050565b7f6e6f74206f776e65720000000000000000000000000000000000000000000000600082015250565b60006119466009836118ff565b915061195182611910565b602082019050919050565b6000602082019050818103600083015261197581611939565b9050919050565b7f747820646f6573206e6f74206578697374000000000000000000000000000000600082015250565b60006119b26011836118ff565b91506119bd8261197c565b602082019050919050565b600060208201905081810360008301526119e1816119a5565b9050919050565b7f4e487b7100000000000000000000000000000000000000000000000000000000600052603260045260246000fd5b7f747820616c726561647920657865637574656400000000000000000000000000600082015250565b6000611a4d6013836118ff565b9150611a5882611a17565b602082019050919050565b60006020820190508181036000830152611a7c81611a40565b9050919050565b7f7478206e6f7420636f6e6669726d656400000000000000000000000000000000600082015250565b6000611ab96010836118ff565b9150611ac482611a83565b602082019050919050565b60006020820190508181036000830152611ae881611aac565b9050919050565b7f4e487b7100000000000000000000000000000000000000000000000000000000600052601160045260246000fd5b6000611b298261124c565b9150611b348361124c565b925082821015611b4757611b46611aef565b5b828203905092915050565b7f4e487b7100000000000000000000000000000000000000000000000000000000600052602260045260246000fd5b60006002820490506001821680611b9957607f821691505b602082108103611bac57611bab611b52565b5b50919050565b7f6f776e6572732072657175697265640000000000000000000000000000000000600082015250565b6000611be8600f836118ff565b9150611bf382611bb2565b602082019050919050565b60006020820190508181036000830152611c1781611bdb565b9050919050565b7f696e76616c6964206f776e657200000000000000000000000000000000000000600082015250565b6000611c54600d836118ff565b9150611c5f82611c1e565b602082019050919050565b60006020820190508181036000830152611c8381611c47565b9050919050565b6000611c958261124c565b91507fffffffffffffffffffffffffffffffffffffffffffffffffffffffffffffffff8203611cc757611cc6611aef565b5b600182019050919050565b7f747820616c726561647920636f6e6669726d6564000000000000000000000000600082015250565b6000611d086014836118ff565b9150611d1382611cd2565b602082019050919050565b60006020820190508181036000830152611d3781611cfb565b9050919050565b6000611d498261124c565b9150611d548361124c565b9250827fffffffffffffffffffffffffffffffffffffffffffffffffffffffffffffffff03821115611d8957611d88611aef565b5b828201905092915050565b60008190508160005260206000209050919050565b60006020601f8301049050919050565b600082821b905092915050565b600060088302611df67fffffffffffffffffffffffffffffffffffffffffffffffffffffffffffffffff82611db9565b611e008683611db9565b95508019841693508086168417925050509392505050565b6000819050919050565b6000611e3d611e38611e338461124c565b611e18565b61124c565b9050919050565b6000819050919050565b611e5783611e22565b611e6b611e6382611e44565b848454611dc6565b825550505050565b600090565b611e80611e73565b611e8b818484611e4e565b505050565b5b81811015611eaf57611ea4600082611e78565b600181019050611e91565b5050565b601f821115611ef457611ec581611d94565b611ece84611da9565b81016020851015611edd578190505b611ef1611ee985611da9565b830182611e90565b50505b505050565b600082821c905092915050565b6000611f1760001984600802611ef9565b1980831691505092915050565b6000611f308383611f06565b9150826002028217905092915050565b611f49826113e6565b67ffffffffffffffff811115611f6257611f616114de565b5b611f6c8254611b81565b611f77828285611eb3565b600060209050601f831160018114611faa5760008415611f98578287015190505b611fa28582611f24565b86555061200a565b601f198416611fb886611d94565b60005b82811015611fe057848901518255600182019150602085019450602081019050611fbb565b86831015611ffd5784890151611ff9601f891682611f06565b8355505b6001600288020188555050505b505050505050565b60006040820190506120276000830185611256565b81810360208301526120398184611446565b90509392505050565b7f63616e6e6f742065786563757465207478000000000000000000000000000000600082015250565b60006120786011836118ff565b915061208382612042565b602082019050919050565b600060208201905081810360008301526120a78161206b565b9050919050565b600081905092915050565b600081546120c681611b81565b6120d081866120ae565b945060018216600081146120eb576001811461210057612133565b60ff1983168652811515820286019350612133565b61210985611d94565b60005b8381101561212b5781548189015260018201915060208101905061210c565b838801955050505b50505092915050565b600061214882846120b9565b915081905092915050565b7f7478206661696c65640000000000000000000000000000000000000000000000600082015250565b60006121896009836118ff565b915061219482612153565b602082019050919050565b600060208201905081810360008301526121b88161217c565b905091905056fea264697066735822122001cc2c1fd2387c40aa2e0c0c533f12a3ab719ae4808b61321efb659abccadbd264736f6c634300080f0033",
  "immutableReferences": {
    "83": [
      {
        "length": 32,
        "start": 1846
      }
    ]
  },
  "source": "// SPDX-License-Identifier: MIT\r\npragma solidity ^0.8;\r\n\r\ncontract MultiSigWallet {\r\n    event Deposit(address indexed sender, uint256 amount, uint256 balance);\r\n    event SubmitTransaction(\r\n        address indexed owner,\r\n        uint256 indexed txIndex,\r\n        address indexed to,\r\n        uint256 value,\r\n        bytes data\r\n    );\r\n    event ConfirmTransaction(address indexed owner, uint256 indexed txIndex);\r\n    event RevokeConfirmation(address indexed owner, uint256 indexed txIndex);\r\n    event ExecuteTransaction(address indexed owner, uint256 indexed txIndex);\r\n    event OwnerStatus(address indexed owner,bool indexed status);\r\n\r\n    address immutable ACCESS_REGISTRY_CONTRACT;\r\n    mapping(address => bool) public isOwner;\r\n    uint256 public numConfirmationsRequired;\r\n\r\n    struct Transaction {\r\n        address to;\r\n        uint256 value;\r\n        bytes data;\r\n        bool executed;\r\n        uint256 numConfirmations;\r\n    }\r\n\r\n    // mapping from tx index => owner => bool\r\n    mapping(uint256 => mapping(address => bool)) public isConfirmed;\r\n\r\n    Transaction[] public transactions;\r\n\r\n    modifier onlyOwner() {\r\n        require(isOwner[msg.sender], \"not owner\");\r\n        _;\r\n    }\r\n\r\n    modifier txExists(uint256 _txIndex) {\r\n        require(_txIndex < transactions.length, \"tx does not exist\");\r\n        _;\r\n    }\r\n\r\n    modifier notExecuted(uint256 _txIndex) {\r\n        require(!transactions[_txIndex].executed, \"tx already executed\");\r\n        _;\r\n    }\r\n\r\n    modifier notConfirmed(uint256 _txIndex) {\r\n        require(!isConfirmed[_txIndex][msg.sender], \"tx already confirmed\");\r\n        _;\r\n    }\r\n\r\n    modifier onlyRegistry() {\r\n        require(msg.sender == ACCESS_REGISTRY_CONTRACT);\r\n        _;\r\n    }\r\n\r\n    constructor(address _registryContract) {\r\n        ACCESS_REGISTRY_CONTRACT = _registryContract;\r\n    }\r\n\r\n    receive() external payable {\r\n        emit Deposit(msg.sender, msg.value, address(this).balance);\r\n    }\r\n\r\n    function getOwners(address[] memory _owners,bool[] memory _status,uint _numConfirmationsRequired) public onlyRegistry {\r\n        require(_owners.length > 0, \"owners required\");\r\n\r\n        for (uint256 i = 0; i < _owners.length; i++) {\r\n            address owner = _owners[i];\r\n            bool status = _status[i];\r\n\r\n            require(owner != address(0), \"invalid owner\");\r\n\r\n            isOwner[owner] = status;\r\n\r\n            emit OwnerStatus(owner, status);\r\n        }\r\n\r\n        numConfirmationsRequired = _numConfirmationsRequired;\r\n    }\r\n\r\n    function submitTransaction(\r\n        address _to,\r\n        uint256 _value,\r\n        bytes memory _data\r\n    ) public onlyOwner {\r\n        uint256 txIndex = transactions.length;\r\n\r\n        transactions.push(\r\n            Transaction({\r\n                to: _to,\r\n                value: _value,\r\n                data: _data,\r\n                executed: false,\r\n                numConfirmations: 0\r\n            })\r\n        );\r\n\r\n        emit SubmitTransaction(msg.sender, txIndex, _to, _value, _data);\r\n    }\r\n\r\n    function confirmTransaction(uint256 _txIndex)\r\n        public\r\n        onlyOwner\r\n        txExists(_txIndex)\r\n        notExecuted(_txIndex)\r\n        notConfirmed(_txIndex)\r\n    {\r\n        Transaction storage transaction = transactions[_txIndex];\r\n        transaction.numConfirmations += 1;\r\n        isConfirmed[_txIndex][msg.sender] = true;\r\n\r\n        emit ConfirmTransaction(msg.sender, _txIndex);\r\n    }\r\n\r\n    function executeTransaction(uint256 _txIndex)\r\n        public\r\n        onlyOwner\r\n        txExists(_txIndex)\r\n        notExecuted(_txIndex)\r\n    {\r\n        Transaction storage transaction = transactions[_txIndex];\r\n\r\n        require(\r\n            transaction.numConfirmations >= numConfirmationsRequired,\r\n            \"cannot execute tx\"\r\n        );\r\n\r\n        transaction.executed = true;\r\n\r\n        (bool success, ) = transaction.to.call{value: transaction.value}(\r\n            transaction.data\r\n        );\r\n        require(success, \"tx failed\");\r\n\r\n        emit ExecuteTransaction(msg.sender, _txIndex);\r\n    }\r\n\r\n    function revokeConfirmation(uint256 _txIndex)\r\n        public\r\n        onlyOwner\r\n        txExists(_txIndex)\r\n        notExecuted(_txIndex)\r\n    {\r\n        Transaction storage transaction = transactions[_txIndex];\r\n\r\n        require(isConfirmed[_txIndex][msg.sender], \"tx not confirmed\");\r\n\r\n        transaction.numConfirmations -= 1;\r\n        isConfirmed[_txIndex][msg.sender] = false;\r\n\r\n        emit RevokeConfirmation(msg.sender, _txIndex);\r\n    }\r\n\r\n    function getTransactionCount() public view returns (uint256) {\r\n        return transactions.length;\r\n    }\r\n\r\n    function getTransaction(uint256 _txIndex)\r\n        public\r\n        view\r\n        returns (\r\n            address to,\r\n            uint256 value,\r\n            bytes memory data,\r\n            bool executed,\r\n            uint256 numConfirmations\r\n        )\r\n    {\r\n        Transaction storage transaction = transactions[_txIndex];\r\n\r\n        return (\r\n            transaction.to,\r\n            transaction.value,\r\n            transaction.data,\r\n            transaction.executed,\r\n            transaction.numConfirmations\r\n        );\r\n    }\r\n}\r\n",
  "sourcePath": "C:\\Users\\ojasm\\Documents\\Blockchain\\Internshala\\hashstack\\contracts\\MultiSIgWallet.sol",
  "compiler": {
    "name": "solc",
    "version": "0.8.15+commit.e14f2714.Emscripten.clang"
  },
  "schemaVersion": "3.4.3",
  "updatedAt": "2022-07-29T18:08:05.753Z",
  "devdoc": {
    "kind": "dev",
    "methods": {},
    "version": 1
  },
  "userdoc": {
    "kind": "user",
    "methods": {},
    "version": 1
  }
}